:020000040800F2
:100000003809002075160008B5020008B70200087C
:10001000BB020008BF020008C30200080000000085
:10002000000000000000000000000000C7020008FF
:10003000C902000800000000CB020008CD02000841
:100040008F1600088F1600088F1600088F160008FC
:100050008F1600088F1600088F1600088F160008EC
:100060008F1600088F1600088F1600088F160008DC
:100070008F1600088F1600088F1600088F160008CC
:100080008F1600088F1600088F1600088F160008BC
:100090008F1600088F1600088F160008B913000885
:1000A0008F1600088F1600088F1600088F1600089C
:1000B0008F1600088F1600088F1600088F1600088C
:1000C0008F1600088F1600088F1600088F1600087C
:1000D0008F160008EB1500088F1600088F16000811
:1000E0008F1600088F1600088F1600088F1600085C
:1000F0008F1600088F1600088F1600088F1600084C
:100100008F1600088F1600088F1600088F1600083B
:100110008F1600088F1600088F1600088F1600082B
:100120008F1600088F1600088F1600088F1600081B
:1001300000F002F800F05AF80AA090E8000C82449F
:100140008344AAF10107DA4501D100F04FF8AFF27C
:10015000090EBAE80F0013F0010F18BFFB1A43F0A5
:100160000103184704410000244100000A444FF0F5
:10017000000C10F8013B13F0070408BF10F8014B06
:100180001D1108BF10F8015B641E05D010F8016B4B
:10019000641E01F8016BF9D113F0080F1EBF10F8AF
:1001A000014BAD1C0C1B09D16D1E58BF01F801CBD2
:1001B000FAD505E014F8016B01F8016B6D1EF9D555
:1001C0009142D6D37047000000230024002500266A
:1001D000103A28BF78C1FBD8520728BF30C148BFAA
:1001E0000B6070471FB51FBD10B510BD03F0D5FBE8
:1001F0001146FFF7F7FF00F021F803F0F3FB03B41B
:10020000FFF7F2FF03BC01F095F9000010B500F014
:10021000C5FD01F025F900F05DFB00F0DFFA01F00B
:100220006BF800F0BDFF00F095FC00F041F900F024
:1002300021FD4FF4A06001F0C1FF10BD8AB024225F
:100240001A4901A803F073FBFFF7E0FF00221146F3
:10025000104600F039FF07E0C82001F03EF94FF4E6
:100260000051134801F035FB00F0BCF90028F3D130
:1002700000F073FA4FF400510D4801F02AFB14E02E
:1002800001A800F0F8F94FF40051094801F021FBF2
:100290004FF47A7001F021F94FF40051044801F055
:1002A00016FB4FF47A7001F018F9E9E7F839000805
:1002B00000100140704700BFFEE700BFFEE700BF2F
:1002C000FEE700BFFEE770477047704770470000C9
:1002D0000CB50020019000906C48006840F480301C
:1002E0006A49086000BF6948006800F40030009067
:1002F0000198401C0190009818B90198B0F5A06FC2
:10030000F1D16248006800F4003010B10120009083
:1003100001E0002000900098012843D15C4800686B
:1003200040F010005A4908600846006820F00300B9
:1003300008600846006840F00200086053484068C2
:10034000524948600846406848600846406840F4A2
:10035000806048600846406820F47C104860084689
:10036000406840F4E81048600846006840F080703B
:10037000086000BF4548006800F000700028F9D010
:100380004248406820F00300404948600846406801
:1003900040F00200486000BF3C48406800F00C009C
:1003A0000828F9D10CBD10B5FFF792FF10BD10B5AC
:1003B0003648006840F0010034490860084640684B
:1003C00034490840314948600846006832490840CD
:1003D0002E4908600846006820F48020086008461E
:1003E000406820F4FE0048604FF41F008860FFF76B
:1003F000DAFF4FF000602949086010BD10B50021F8
:1004000000200022214B5B6803F00C0121B104297C
:1004100006D0082928D107E0214B224C236027E091
:100420001F4B204C236023E0184B5B6803F47010D3
:10043000164B5B6803F48032022303EB904022B931
:10044000194B4343174C23600DE0104B5B6803F4DA
:10045000003323B1144B4343124C236003E0104B91
:100460004343104C236003E00D4B0E4C236000BF50
:1004700000BF064B5B68C3F303130C4CE15C094BF4
:100480001B68CB40074C236010BD000000100240E9
:10049000002002400000FFF8FFFFF6FE08ED00E03C
:1004A00000127A000000002000093D000400002036
:1004B00000B587B001210C2001F018FC1020ADF828
:1004C00018008DF81B0003208DF81A0006A9B84803
:1004D00001F050F90120ADF8180010208DF81B0034
:1004E00003208DF81A0006A9B24801F043F9012152
:1004F000B04801F0ECF90820ADF8180048208DF85C
:100500001B0003208DF81A0006A9AA4801F032F951
:100510001021A74801F0DBF900F0CFFA0021A6482E
:1005200001F085FF0020ADF804004FF48270ADF8B3
:1005300006000020ADF80800ADF80A00ADF80C0088
:100540004FF40070ADF80E003820ADF81000002018
:10055000ADF812000720ADF8140001A9964801F08B
:10056000C1FE00209549086001209549C1F880012D
:1005700007B000BD2DE9F04107460D4616460020A4
:1005800090490860384600F071FA8046002405E082
:10059000FF2000F06BFA2855601CC4B2B442F7DBB0
:1005A0000120884908604046BDE8F0812DE9F0410E
:1005B00007460C461546002082490860384600F080
:1005C00055FA8046002605E014F8010B00F04EFABB
:1005D000701CC6B2AE42F7DB01207A490860404683
:1005E000BDE8F0811CB578A103C9CDE90001102058
:1005F00000F099FA052269463020FFF7D7FF05225F
:1006000069461020FFF7B6FF002406E01DF804003D
:10061000A52800D003E0601CC4B2052CF6DB00BFA7
:10062000052C01D001201CBD0020FCE770B505465B
:100630000C46002063490860284600F017FA064679
:10064000204600F013FA01205D49C1F880013046D0
:1006500070BD70B5044600205A490860204600F07D
:1006600005FAFF2000F002FA054601205449C1F8BE
:100670008001284670BD70B50546102000F053FA81
:1006800000204E49086020222946A020FFF78EFF57
:1006900001204F49C1F8900100BF4A4874380068F2
:1006A0000028FAD10720FFF7D4FF0446214627206F
:1006B000FFF7BCFF04F0100028B1FF21E120FFF795
:1006C000B5FF102070BD04F0200008B12020F9E72C
:1006D000FF20F7E770B50446102000F024FA072049
:1006E000FFF7B7FF054629462720FFF79FFF05F0D4
:1006F000400050B1202221466120FFF73BFFFF213F
:10070000E220FFF793FF002070BD0120FCE710B549
:1007100000202A49086005222E492A20FFF746FFBB
:1007200001212120FFF782FF01212220FFF77EFF18
:1007300028212520FFF77AFF20213120FFF776FFBF
:100740000F212620FFF772FF0F212020FFF76EFFF9
:1007500001201F49C1F8900110BD10B500201749B4
:10076000086005221C493020FFF720FF05221949A7
:100770002A20FFF71BFF01212120FFF757FF01214E
:100780002220FFF753FF1A212420FFF74FFF2821D3
:100790002520FFF74BFF0F212620FFF747FF0E21F3
:1007A0002020FFF743FF01200949C1F8900110BD47
:1007B00000080140000C014000300140900121423E
:1007C0000080214280812142A5A5A5A5A5000000A9
:1007D000000021421E3A0008193A000808B501211C
:1007E000082001F083FA0121374801F094F84FF412
:1007F0007070ADF8000048208DF80300694633485A
:1008000000F0B8FF08BD10B5044614B1012030490E
:1008100008702F480078002839D040212B4801F07B
:100820003CF880B18021294801F037F858B14FF4E5
:100830008071264801F031F828B14FF40071234847
:1008400001F02BF818BB0A2000F047FE00202049D9
:10085000087040211D4801F020F808B9012010BDA2
:1008600080211A4801F019F808B90220F7E74FF47F
:100870008071164801F011F808B90320EFE74FF432
:100880000071124801F009F8D8B90420E7E74021C7
:100890000E4801F002F8012813D180210B4800F026
:1008A000FCFF01280DD10102084800F0F6FF0128E5
:1008B00007D14102054800F0F0FF012801D10449A9
:1008C00008700020CBE7000000023000000C01405F
:1008D0001400002008B50121082001F007FA4FF4A8
:1008E0007040ADF8000010208DF8030003208DF853
:1008F000020069465A4800F03DFF4FF470415848E5
:1009000000F0E5FF08BD10B5044634B1012C08D055
:10091000022C0BD0032C13D10DE0002051490860AC
:1009200012E000204F49091D08600DE000204D49EC
:100930000831086008E000204A490C31086003E0F3
:100940000A2000F0A6FD00BF00BF10BD10B5044690
:1009500034B1012C08D0022C0BD0032C13D10DE0A4
:1009600001204049086012E001203E49091D08604D
:100970000DE001203B490831086008E001203949B9
:100980000C31086003E00A2000F083FD00BF00BFC7
:1009900010BD10B50446002032490860204600F022
:1009A0009CFD01203049C1F8B00100202D49091DEE
:1009B0000860204600F091FD01202A49091D0860C9
:1009C0000020091D0860204600F087FD0120254910
:1009D0000831086000202449C1F8BC01204600F01D
:1009E0007CFD01202049C1F8BC0110BD70B5054651
:1009F0000C4635B1012D0ED0022D16D0032D28D175
:100A00001DE00020FFF77FFF204600F066FD00207C
:100A1000FFF79CFF21E00120FFF775FF204600F063
:100A20005CFD0120FFF792FF17E00220FFF76BFF4C
:100A3000204600F052FD0220FFF788FF0DE0032062
:100A4000FFF761FF204600F048FD0320FFF77EFF1F
:100A500003E0204600F01DFD00BF00BF70BD000098
:100A6000000C0140B08121420080214270B5054652
:100A7000002405E0601CC4B2C82C01DD002070BD5C
:100A80000221314801F057FD0028F3D029462E48B5
:100A900001F0FEFC002405E0601CC4B2C82C01DD9E
:100AA0000020ECE70121284801F045FD0028F3D0A3
:100AB000254801F0EFFCC0B2E1E708B5012141F2A1
:100AC000040001F013F9E020ADF8000018208DF8C3
:100AD000030003208DF8020069461C4800F04AFE1E
:100AE000E0211A4800F0F3FE0020194908804FF475
:100AF00082704880002088800220C8800120088100
:100B000040024881382088810020C881072008825F
:100B10000D4801F0E7FB01210B4801F088FCFF20A4
:100B2000FFF7A4FF08BD084909884FF6C7721140B6
:100B3000054A118011460988014311801146098830
:100B400041F0400111807047003001400008014031
:100B5000F801002008B50121042001F0C7F84FF486
:100B60007060ADF8000048208DF8030069461C480D
:100B700000F000FE08BD2DE9F04100270025002609
:100B8000A8464FF48071164800F087FE00B900E0D7
:100B900001274FF40071124800F07FFE08B90025CC
:100BA00000E001254FF480610D4800F076FE08B9A1
:100BB000002600E001264FF40061094800F06DFEB8
:100BC00010B94FF0000801E04FF0010807EB4500B5
:100BD00000EB860040440830C4B22046BDE8F081F6
:100BE0000008014030B589B005460C4601210220BD
:100BF00001F089F80121092001F078F80220ADF810
:100C0000200018208DF8230003208DF8220008A969
:100C10005D4800F0AFFD01215C4800F07CFEADF8BE
:100C20001850ADF814400020ADF81A00ADF81600C9
:100C300005A9574801F08AFD7020ADF80400012095
:100C4000ADF806000020ADF80A000220ADF80C0057
:100C500001A94F4801F091FE08214D4802F021FA08
:100C600001214B4802F0CEF90121494802F0CAF8AF
:100C700009B030BD10B5472142F22730FFF7B2FF6F
:100C800010BD2DE9F04704460D460026C5EBC50012
:100C9000071901213E4802F0B5F8162F4BD2DFE8C4
:100CA00007F04A0B0E1114171A1D202326292C2F8A
:100CB0003235383B3E414447364846883EE0354869
:100CC00086883BE03348C68838E03248068935E0FC
:100CD0003048468932E02F4886892FE02D48C68962
:100CE0002CE02C48068A29E02A48468A26E0294832
:100CF000868A23E02748C68A20E02648068B1DE026
:100D00002448468B1AE02348868B17E02148C68B7F
:100D100014E02048068C11E01E48468C0EE01D4869
:100D2000868C0BE01B48C68C08E01A48068D05E04F
:100D30001848468D02E01748068800BF00BF1648D5
:100D400090FBF6F0401E1FFA80F84146104802F072
:100D5000EFFA114890FBF6F0A0F1010808EBD8700B
:100D60004010401C1FFA80F94946094802F0E8FA91
:100D7000BDE8F08710B50021054802F0E1FA002136
:100D8000034802F03FF810BD000C014000081A00B3
:100D900000040040243A000840420F0000B587B02C
:100DA00001214FF4017000F0A1FF4FF4004000F06A
:100DB00001FF0220ADF8040000208DF8070001A912
:100DC0002E4800F0D7FC2E4802F0FAFA00200290DC
:100DD0008DF80C008DF80D004FF460200490002079
:100DE000059001208DF8180002A9254802F00FFB9C
:100DF0000121234802F037FB214802F056FB00BFD7
:100E00001F4802F057FB0028FAD11D4802F05CFB96
:100E100000BF1B4802F05DFB0028FAD107B000BDFF
:100E200010B50446072301222146154802F087FB2E
:100E30000121134802F057FB00BF0221104802F0C5
:100E4000C3FC0028F9D00E4802F0E0FB10BD2DE9EC
:100E5000F04107460C460025002608E03846FFF71B
:100E6000DFFF0544052000F038FB701CC6B2A64227
:100E7000F4DBB5FBF4F080B2BDE8F081000801407E
:100E80000024014070B504460E4626B12021FE48DC
:100E900000F01DFD03E02021FB4800F01AFD0025B5
:100EA0001BE04FF48061F84800F013FD04F080006F
:100EB00028B14FF40061F44800F009FD04E04FF45C
:100EC0000061F14800F005FD4FF48061EE4800F04C
:100ED000FEFC6006040E681CC5B2082DE1DB202173
:100EE000E94800F0F4FC70BD70B504460D4605F10C
:100EF000B001C8B20021FFF7C5FF102141EA14106C
:100F00000021FFF7BFFF04F00F0141F001000021B5
:100F1000FFF7B8FF70BD10B500218D20FFF7B2FFBD
:100F200000211420FFF7AEFF0021AF20FFF7AAFF3A
:100F300010BD10B500218D20FFF7A4FF0021102067
:100F4000FFF7A0FF0021AE20FFF79CFF10BD70B59A
:100F5000002419E004F1B001C8B20021FFF792FFAC
:100F600000210846FFF78EFF00211020FFF78AFFBF
:100F7000002505E001210020FFF784FF681CC5B2B1
:100F8000802DF7DB601CC4B2082CE3DB70BD2DE9BB
:100F9000F04107460E46904600250024A8F12000A7
:100FA000C5B27F2F02DD0027B01CC6B231463846DD
:100FB000FFF79AFF002408E004EB0511B34A505CE8
:100FC0000121FFF75FFF601CC4B2082CF4DB701C2A
:100FD000C1B23846FFF788FF002409E004EB051191
:100FE0000831AA4A505C0121FFF74CFF601CC4B2D3
:100FF000082CF3DBBDE8F08110B50246012000E0CB
:1010000050430B00A1F10104E1B2F9D110BD2DE96B
:10101000FF5F074691461D460E9E4FF0000A0024D2
:1010200033E0281B401EC1B20A20FFF7E5FFB9FBE1
:10103000F0F00A21B0FBF1F201FB1208BAF1000F47
:1010400013D1681EA04210DDB8F1000F0BD1B346DA
:1010500006EBDB71491001FB0471C8B22022019933
:10106000FFF795FF0FE04FF0010AB34606EBDB7187
:10107000491001FB0471C8B208F13001CAB20199EC
:10108000FFF785FF00BF601CC4B2AC42C9DBBDE8FE
:10109000FF9F2DE9F04104460F46154600260EE05D
:1010A000AA5D39462046FFF772FF04F10800C4B27A
:1010B000782C02DD0024B81CC7B2701CC6B2A85D33
:1010C0000028EDD1BDE8F0812DE9F04180460E46C3
:1010D0001546002731464046FFF706FF00240AE088
:1010E0006B4A02EB8511085D0121FFF7CBFE781CEE
:1010F000C7B2601CC4B2102CF2DB701CC1B24046F7
:10110000FFF7F2FE00240CE06900491C604A02EB84
:101110004111085D0121FFF7B5FE781CC7B2601CC4
:10112000C4B2102CF0DBBDE8F0812DE9F05F06467B
:101130000F4690461C46DDF828A04FF0000BE11743
:1011400004EB5171C910A4EBC10131B92046E1177C
:1011500004EB5171C1F3C70506E02046E11704EB2B
:101160005171C910491CCDB23D4615E029463046A3
:10117000FFF7BAFEB1460BE059460BF1010B1AF826
:1011800001000121FFF77EFE09F1010000F0FF09D7
:10119000C145F1DB681CC5B2A542E7DBBDE8F09FA5
:1011A00008B50121082000F0A1FD4FF44360ADF81F
:1011B000000010208DF8030003208DF8020069461E
:1011C000314800F0D7FA4FF443612F4800F07FFB1D
:1011D00010212D4800F07BFB642000F07EF91021E7
:1011E000294800F076FB642000F077F910212648AA
:1011F00000F06DFB0021AE20FFF744FE0021084601
:10120000FFF740FE00211020FFF73CFE00214020A8
:10121000FFF738FE00218120FFF734FE0021CF20A8
:10122000FFF730FE0021A120FFF72CFE0021C8208F
:10123000FFF728FE0021A620FFF724FE0021A820AA
:10124000FFF720FE00213F20FFF71CFE0021D320E6
:10125000FFF718FE00210846FFF714FE0021D520F5
:10126000FFF710FE00218020FFF70CFE0021D9209F
:10127000FFF708FE0021F120FFF704FE0021DA202D
:10128000FFF700FE002105E0000C0140783C00085B
:10129000150000201220FFF7F5FD0021DB20FFF7ED
:1012A000F1FD00214020FFF7EDFD00212020FFF798
:1012B000E9FD00210220FFF7E5FD00218D20FFF769
:1012C000E1FD00211420FFF7DDFD0021A420FFF740
:1012D000D9FD0021A620FFF7D5FD0021AF20FFF7A3
:1012E000D1FD0021AF20FFF7CDFDFFF730FE00213B
:1012F0000846FFF7F9FD08BD0EB50121084600F0CC
:10130000F5FCFFF76BFA0621012000F049FB4020B5
:10131000019000208DF808000C208DF809000120B4
:101320008DF80A0001A802F081FA0721012000F0DF
:1013300037FB8020019000208DF808000C208DF8EC
:10134000090001208DF80A0001A802F06FFA0821B7
:10135000012000F025FB4FF48070019000208DF8F3
:1013600008000C208DF8090001208DF80A0001A862
:1013700002F05CFA0921012000F012FB4FF400702A
:10138000019000208DF808000C208DF80900012044
:101390008DF80A0001A802F049FA17208DF8000024
:1013A00002208DF8010001208DF802008DF8030065
:1013B000684600F008FF0EBD10B50A2000F08DF859
:1013C0004021254800F069FA50B92448006808B95E
:1013D000012000E0002021490860402002F09DFA31
:1013E00080211D4800F059FA60B91C48001D0068B2
:1013F00008B9012000E000201849091D086080207C
:1014000002F08BFA4FF48071134800F046FA68B985
:1014100012480830006808B9012000E000200F4998
:10142000083108604FF4807002F077FA4FF40071D1
:10143000094800F032FA68B908480C30006808B969
:10144000012000E0002005490C3108604FF40070D5
:1014500002F063FA10BD0000000C0140B08121428F
:1014600010B56FF0040000F0F8FE2E4800682E4919
:10147000B0FBF1F02D4908700846007800EB400100
:10148000C1EBC0104FF6FF7101EAC0002849088087
:1014900010BD0146254A12784A434FF0E0235A61B5
:1014A00000229A611A46126942F001021A6100BFD5
:1014B0004FF0E022106900F001021AB100F480320E
:1014C000002AF5D04FF0E022126922F001024FF01D
:1014D000E0231A6100229A6170470146144A12887B
:1014E0004A434FF0E0235A6100229A611A4612697A
:1014F00042F001021A6100BF4FF0E022106900F0D3
:1015000001021AB100F48032002AF5D04FF0E02237
:10151000126922F001024FF0E0231A6100229A6161
:10152000704700000000002000127A00D601002061
:10153000D8010020014600BF704700BF494A128809
:1015400002F04002002AF9D0C2B2464B1B1D1A809D
:10155000704710B586B00446012144F2040000F043
:10156000C5FB4FF40070ADF8140003208DF8160091
:1015700018208DF8170005A93B4800F0FBF84FF440
:101580008060ADF8140004208DF8170005A93648D6
:1015900000F0F0F825208DF8000003208DF8010000
:1015A0008DF8020001208DF80300684600F00BFE64
:1015B00001940020ADF80800ADF80A00ADF80C0069
:1015C000ADF810000C20ADF80E0001A9254800F080
:1015D00034FC012240F22551224800F0C6FC0121D2
:1015E000204800F0B6FC06B010BD10B540F2255101
:1015F0001C4800F09FFD10B31A4800F01BFDC4B258
:101600001A48008800F40040C8B91848008800F45F
:10161000804060B10A2C03D000201449088020E0EB
:101620001248008840F400401049088019E00D2C51
:1016300006D10E48008840F480400C49088010E034
:101640000A480088C0F30D0009490C540748008877
:10165000401C0649088008460088C72801DD002094
:10166000088010BD0038014000080140E001002062
:101670000A0200200948804709480047FEE7FEE7C4
:10168000FEE7FEE7FEE7FEE7FEE7FEE7FEE7FEE732
:1016900004480549054A064B70470000AF0300089F
:1016A00031010008380300203809002038050020E7
:1016B0003805002010B50446CC48844208D10121E9
:1016C000042000F02DFB0021042000F029FB46E05F
:1016D000C748844208D10121082000F021FB0021E5
:1016E000082000F01DFB3AE0C248844208D10121E5
:1016F000102000F015FB0021102000F011FB2EE05F
:10170000BD48844208D10121202000F009FB0021BE
:10171000202000F005FB22E0B848844208D10121D6
:10172000402000F0FDFA0021402000F0F9FA16E018
:10173000B348844208D10121802000F0F1FA002151
:10174000802000F0EDFA0AE0AE48844207D1012182
:10175000801500F0E5FA0021A01500F0E1FA10BDB7
:1017600010B50121084600F0DBFA0021012000F04D
:10177000D7FA10BD2DE9F0410246002500260020D1
:1017800000230024002791F803C00CF00F0591F806
:1017900003C00CF0100CBCF1000F03D091F802C094
:1017A0004CEA050591F800C0BCF1000F31D0146877
:1017B00000202BE04FF0010C0CFA00F3B1F800C050
:1017C0000CEA03069E4220D183004FF00F0C0CFA66
:1017D00003F7BC4305FA03FC4CEA040491F803C088
:1017E000BCF1280F06D14FF0010C0CFA00FCC2F836
:1017F00014C00AE091F803C0BCF1480F05D14FF0C6
:10180000010C0CFA00FCC2F810C0401C0828D1D30F
:101810001460B1F800C0BCF1FF0F34DD5468002043
:101820002EE000F1080C4FF0010808FA0CF3B1F8B3
:1018300000C00CEA03069E4221D183004FF00F0C3A
:101840000CFA03F7BC4305FA03FC4CEA040491F8D4
:1018500003C0BCF1280F05D100F1080C08FA0CF800
:10186000C2F8148091F803C0BCF1480F07D100F111
:10187000080C4FF0010808FA0CF8C2F81080401C60
:101880000828CED35460BDE8F0814FF6FF71018087
:10189000022181700421C1707047024600209368C4
:1018A0000B400BB1012000E0002070470146886822
:1018B00080B2704702460020D3680B400BB1012074
:1018C00000E0002070470146C86880B2704701619F
:1018D0007047416170470AB1016100E041617047A2
:1018E000C16070474FF480320A4382618161826136
:1018F00082698269704702460020434B18684FF6A0
:101900008073184040EA021008433F4B186070474C
:101910003E49C8617047F0B50A4600230024002103
:10192000002500F00046B6F1004F02D1364EF169B5
:1019300001E0354E7168C0F3034583B200F44016F0
:10194000B6F5401F08D121F070612F4E766826F061
:1019500070662D4F7E6012E000F48016B6F5801F91
:1019600006D1032606FA05F4A14341F0706106E0B2
:10197000460D360103FA06F6B14341F0706122B11B
:10198000460D360103FA06F6314300F00046B6F183
:10199000004F02D11C4EF16101E01B4E7160F0BDA1
:1019A00030B500228B071C0F0F2303FA04F2164BED
:1019B00008338C1053F824309343134C08348D10A3
:1019C00044F8253023468C1053F824308C07240F1C
:1019D00000FA04F423430C4C08348D1044F82530ED
:1019E00030BD0A49DC310860704700000008014042
:1019F000000C01400010014000140140001801409B
:101A0000001C014000200140000001400000204275
:101A1000DF48006840F00100DD4908600846406882
:101A2000DC490840DA49486008460068DA4908405D
:101A3000D74908600846006820F4802008600846FE
:101A4000406820F4FE0048604FF41F008860704733
:101A5000CF49096821F48031CD4A116011460968E7
:101A600021F480211160B0F5803F03D0B0F5802FC4
:101A70000ED106E0C649096841F48031C44A1160BC
:101A800007E0C349096841F4A021C14A116000E0A0
:101A900000BF00BF704710B50146002200230020A0
:101AA0004A11012A02D1BA4C236806E0022A02D167
:101AB000B74C236A01E0B64C636A01F01F020124AF
:101AC00094401C400CB1012000E0002010BD38B54E
:101AD000002000900024002500BF3120FFF7DBFF2D
:101AE00005460098401C00900098B0F5A06F01D00A
:101AF000002DF2D03120FFF7CEFF08B1012400E025
:101B00000024204638BD01460020A14A106820F07C
:101B1000F80040EAC10010607047A04908607047B3
:101B2000024600209A4B586820F47C1042EA0103D8
:101B30001843974B586070479849086670470146AC
:101B40000020934A506820F003000843506070471B
:101B50008F48406800F00C007047014600208C4A16
:101B6000506820F0F00008435060704701460020A4
:101B7000874A506820F4E06008435060704701468F
:101B80000020834A506820F4605040EAC100506051
:101B9000704729B17E4A527A02437D4B5A7204E063
:101BA0007B4A527A82437A4B5A7270477B49D831CA
:101BB0000860704701460020754A506820F4404094
:101BC0000843506070470021714A20321170704AFA
:101BD00082F82010012802D004280AD104E0012153
:101BE0006B4A2032117005E00521694A20321170DC
:101BF00000E000BF00BF7047694908607047644952
:101C0000096A0143624A11627047654944390860B4
:101C1000704730B500210022002400235C4D6D6820
:101C200005F00C0121B1042905D0082923D105E0D4
:101C30005C4D056022E05B4D05601FE0544D6D6812
:101C400005F47012524D6D6805F48034022505EBE1
:101C500092421CB9544D554305600BE04C4D6D68E4
:101C600005F400351DB1504D5543056002E04D4D62
:101C70005543056002E04B4D056000BF00BF444D79
:101C80006D6805F0F0010909484D6B5C0568DD40A1
:101C900045603F4D6D6805F4E061090A434D6B5C9A
:101CA0004568DD4085603A4D6D6805F46051C90AAC
:101CB0003E4D6B5C4568DD40C560354D6D6805F493
:101CC0004041890B3A4D6B5CC568B5FBF3F5056186
:101CD00030BD29B12E4A526902432D4B5A6104E0AE
:101CE0002B4A526982432A4B5A61704729B1284ACC
:101CF00092690243264B9A6104E0254A9269824325
:101D0000234B9A61704729B1214AD2690243204B83
:101D1000DA6104E01E4AD26982431D4BDA617047E2
:101D200029B11B4AD2680243194BDA6004E0184A11
:101D3000D2688243164BDA60704729B1144A12699F
:101D40000243134B1A6104E0114A12698243104B9B
:101D50001A61704712494039086070470F49C864DA
:101D600070470B49C87170470948406A40F080705D
:101D700007494862704701460020054A92680A40B8
:101D80000AB1012000E000207047014988727047C5
:101D9000001002400000FFF8FFFFF6FE0000424284
:101DA0008004424200127A0000093D00E201002056
:101DB000F201002010B50446FB48844209D10121FC
:101DC0008803FFF7ADFF00214FF48040FFF7A8FF25
:101DD00032E0F648844209D101214804FFF7ADFF03
:101DE00000214FF40030FFF7A8FF25E0F0488442BF
:101DF00009D101218804FFF7A0FF00214FF48020C2
:101E0000FFF79BFF18E0EB48844209D10121C80489
:101E1000FFF793FF00214FF40020FFF78EFF0BE048
:101E2000E548844208D101210805FFF786FF00211B
:101E30004FF48010FFF781FF10BD2DE9F04786B009
:101E400005460E460024A24600BFA1460027B089E1
:101E500000B100BF2F462C8A4CF6FF700440F0887A
:101E600004432C82AC894EF6F3100440B0883189CB
:101E70000843718908430443AC81AC8A4FF6FF40A4
:101E80000440B0890443AC8201A8FFF7C2FEC648F3
:101E9000874202D1DDF810A001E0DDF80CA0A8898E
:101EA00000F4004040B10AEBCA0000EB0A103168B0
:101EB0004900B0FBF1F807E00AEBCA0000EB0A109A
:101EC00031688900B0FBF1F86420B8FBF0F0040140
:101ED0002009642101FB1089A88900F4004040B169
:101EE000322000EBC900B0FBF1F000F00700044322
:101EF00008E0322000EB09106421B0FBF1F000F0A3
:101F00000F0004432C8106B0BDE8F0874FF4165152
:101F1000016000218180C18001810C21418100216B
:101F20008181704710B502460020108A4FF2FF03EE
:101F300018400B884C8823438C882343CC88234348
:101F40001843108210BD0021018041808180C18032
:101F5000704721B1828942F40052828104E0828973
:101F60004DF6FF731A4082817047F0B50346002496
:101F700000260025002040F66A17B94200D100BFB4
:101F80001846C1F3421401F01F06012707FA06F5AF
:101F9000012C01D10C3004E0022C01D1103000E002
:101FA00014301AB107682F43076002E00768AF4397
:101FB0000760F0BD1AB1838A0B43838202E0838AF3
:101FC0008B4383827047028A4FF6F0731A40028275
:101FD000028A0A430282704782894FF2FF731A40D5
:101FE000828182890A438281704721B1828942F0CD
:101FF0000202828104E082894FF6FD731A408281D9
:102000007047028A4FF6DF731A400282028A0A433F
:102010000282704721B1028A42F48042028204E0C7
:10202000028A4BF6FF731A4002827047C1F308021E
:102030008280704701468888C0F308007047818914
:1020400041F0010181817047028BD2B20283028B81
:1020500042EA012202837047028B02F47F4202832C
:10206000028B0A430283704721B1828A42F0200228
:10207000828204E0828A4FF6DF731A4082827047C0
:1020800021B1828A42F01002828204E0828A4FF6F5
:10209000EF731A408282704721B1828A42F00802AF
:1020A000828204E0828A4FF6F7731A408282704778
:1020B00021B1828942F40042828103E08289C2F325
:1020C0000E028281704721B1828A42F400628282CC
:1020D00004E0828A4FF2FF731A4082827047828A3C
:1020E0004FF6FB731A408282828A0A4382827047CB
:1020F00021B1828A42F00202828204E0828A4FF693
:10210000FD731A408282704702460020B1F5007FBD
:1021100000D100BF13880B400BB1012000E000206C
:10212000704701F40072B2F5007F00D100BFCA43CE
:102130000280704770B5024600240023002500206D
:1021400040F66A16B14200D100BFC1F3421501F05A
:102150001F03012606FA03F3012D02D196893340AD
:1021600006E0022D02D1168A334001E0968A334000
:102170000C12012606FA04F41688344013B10CB18F
:10218000012000E0002070BD10B50022002340F6C1
:102190006A14A14200D100BF0A1201249440A3B2E4
:1021A000DC43048010BD00000038014000440040C2
:1021B00000480040004C00400050004031490143BD
:1021C000314A1160704770B5002100230F22C47896
:1021D00004B32D4C246804F4E064C4F5E064210ADF
:1021E000C1F10403CA40447804FA03F1847814402E
:1021F00021430901254C0678A155047804F01F05F8
:102200000124AC4005786D11AD0005F1E025C5F85D
:10221000004109E0047804F01F050124AC401C4D86
:102220000678761145F8264070BD1A4A0A400243E6
:10223000154B1B1F1A60704739B1134A121D1268E3
:102240000243114B1B1D1A6006E00F4A121D126853
:1022500082430D4B1B1D1A607047042808D14FF0B4
:10226000E021096941F004014FF0E022116107E02B
:102270004FF0E021096921F004014FF0E0221161E3
:10228000704700000000FA050CED00E000E400E0FB
:1022900080E100E080FFFF1F10B50446BE48844285
:1022A00008D101218014FFF73BFD0021A014FFF7A6
:1022B00037FD16E0B948844208D101210014FFF728
:1022C0003CFD00212014FFF738FD0AE0B4488442A9
:1022D00007D10121C013FFF730FD0021E013FFF704
:1022E0002CFD10BD10B50022028802F441520B886B
:1022F0004C8823438C882343CC8823430C89234375
:102300004C8923438C892343CC8923431A4302807D
:10231000838B4FF2FF74234083830B8A038210BDAB
:102320002DE9F04F85B005460C464FF00009022715
:102330004FF000084FF0010B0026B246A88B4FF279
:1023400040010840A88302202884B5F81C90A068AA
:10235000022801D100BF38E0A08810B94FF0010B6E
:1023600001E04FF0020B8D48854200D100E000BF34
:102370006846FFF74EFCDDF800A0E088B0F5007F6E
:102380000AD14FEA1A2000EB80004000A168B0FBA0
:10239000F1F0401D86B20BE04FEA4B10BAFBF0F0B3
:1023A00000EB80004000A168B0FBF1F0401D86B258
:1023B0000A20B6FBF0F606F00108A6EB0800C0F311
:1023C0004F074FF6FF7000EA0828022F01DBFF2FAE
:1023D00002DD02274FF00008E08840EA0800384399
:1023E0002884A088A189084361880843218808437C
:1023F00040F4006040EA0909A5F81C9005B0BDE86A
:10240000F08F0021018041808180C1800181418164
:102410008181C181072101827047002101804180B3
:102420008180C1800221816000218181704721B1BA
:10243000028842F04002028004E002884FF6BF7337
:102440001A400280704721B1828B42F480628283FD
:1024500004E0828B4FF6FF331A408283704730B519
:10246000002400230C110125A540ABB21AB18588C8
:102470001D43858002E085889D43858030BD1AB16B
:1024800083880B43838002E083888B43838070477B
:10249000818170470146888970474FF6FF629142FB
:1024A00004D0028842F48072028004E002884FF671
:1024B000FF631A400280704721B1828842F0040213
:1024C000828004E082884FF6FB731A408280704756
:1024D00002884FF2FF731A40028002880A4302808A
:1024E0007047018841F480510180704721B1028812
:1024F00042F40052028004E002884DF6FF731A4055
:102500000280704702460020012901D0108B00E0B4
:10251000908A70470146088A7047B1F5804F04D110
:10252000028842F48042028004E002884BF6FF7386
:102530001A40028070470246002013890B400BB1FD
:10254000012000E000207047CA4302817047F0B5C7
:102550000246002000240023002501F00F07012679
:10256000BE40B4B20B1101269E40B3B2968806EA73
:1025700003051689264016B10DB1012000E00020A8
:10258000F0BD10B5002201F00F040123A3409AB260
:10259000D343038110BD00000030014000380040EB
:1025A000003C004010B50446FE48844208D1012199
:1025B000C014FFF7B5FB0021E014FFF7B1FBC4E046
:1025C000B4F1804F08D101210846FFF7B6FB002186
:1025D0000120FFF7B2FBB8E0F348844208D10121A3
:1025E0000220FFF7AAFB00210220FFF7A6FBACE0C8
:1025F000EE48844208D101210420FFF79EFB002110
:102600000420FFF79AFBA0E0E948844208D10121A9
:102610000820FFF792FB00210820FFF78EFB94E0D3
:10262000E448844208D101211020FFF786FB0021F5
:102630001020FFF782FB88E0DF48844208D10121A7
:102640002020FFF77AFB00212020FFF776FB7CE0BB
:10265000DA48844208D101214014FFF761FB0021D0
:102660006014FFF75DFB70E0D548844209D1012179
:10267000C804FFF755FB00214FF40020FFF750FB83
:1026800063E0D048844209D101210805FFF748FBE7
:1026900000214FF48010FFF743FB56E0CA48844204
:1026A00009D101214805FFF73BFB00214FF4001041
:1026B000FFF736FB49E0C548844208D1012140209C
:1026C000FFF73BFB00214020FFF737FB3DE0C04810
:1026D000844208D101218020FFF72FFB00218020B8
:1026E000FFF72BFB31E0BB48844208D10121801564
:1026F000FFF723FB0021A015FFF71FFB25E0B648DD
:10270000844209D101210804FFF70AFB00214FF49C
:102710008030FFF705FB18E0B048844209D1012161
:102720004804FFF7FDFA00214FF40030FFF7F8FAF4
:102730000BE0AB48844208D101218804FFF7F0FA8E
:1027400000214FF48020FFF7EBFA10BD0022028831
:10275000944B98420ED0994B98420BD0B0F1804FD9
:1027600008D0914B984205D0904B984202D0904BA4
:10277000984204D14FF68F731A404B881A438D4B01
:10278000984207D08C4B984204D04FF6FF431A4032
:10279000CB881A4302808B8883850B880385814B05
:1027A00098420BD0854B984208D08B4B984205D06D
:1027B0008A4B984202D08A4B984201D10B7A038609
:1027C00001238382704770B5002400220023058C0A
:1027D0004FF6FE7635400584028C8388048B4FF6D5
:1027E0008F752C40B51E2C400D882C43751E2A4039
:1027F0000D892A434D882A436A4DA8420BD06F4D5C
:10280000A84208D0744DA84205D0744DA84202D009
:10281000734DA84213D14FF6F7752A404D892A43CC
:102820004FF6FB752A408D882A434FF6FF652B40F3
:102830004FF6FF552B408D892B43CD892B43838049
:102840000483CD888586028470BD70B50024002283
:102850000023058C4FF6EF7635400584028C838883
:10286000048B48F6FF752C404FF6FF452C400D8831
:102870004FF6FF7606EA05252C434FF6DF752A4012
:102880000D8906EA05152A434D8806EA05152A43EF
:10289000444DA84202D0494DA8421DD14FF67F7544
:1028A0002A404D894FF6FF7606EA05152A434FF672
:1028B000BF752A408D8806EA05152A434FF6FF3575
:1028C0002B404FF2FF752B408D8906EA85052B437F
:1028D000CD8906EA85052B4383800483CD8805874F
:1028E000028470BD70B5002400220023058C4FF6D1
:1028F000FF6635400584028C8388848B4FF68F7584
:102900002C404FF6FC752C400D882C434FF6FF559C
:102910002A400D894FF6FF7606EA05252A434D88A1
:1029200006EA05252A431F4DA84202D0234DA8429E
:102930001DD14FF2FF752A404D894FF6FF7606EA0A
:1029400005252A434FF6FF352A408D8806EA0525DE
:102950002A434EF6FF752B404DF6FF752B408D89AF
:1029600006EA05152B43CD8906EA05152B4383801E
:102970008483CD888587028470BD70B500220023D2
:102980000024058C4EF6FF7635400584038C848840
:10299000828B48F6FF752A404FF6FF452A400D8886
:1029A00020E00000002C014000040040000800402E
:1029B000000C0040001000400014004000340140B2
:1029C000004C0140005001400054014000180040FC
:1029D000001C004000200040004001400044014035
:1029E000004801404FF6FF7606EA05252A434DF6DA
:1029F000FF752B400D8906EA05352B434D8806EA05
:102A000005352B43FA4DA84202D0FA4DA84208D111
:102A10004BF6FF752C408D894FF6FF7606EA85153B
:102A20002C4384808283CD88A0F84050038470BDFD
:102A3000828B4FF2FF331A408283828B4FF6FF73F3
:102A400003EA01231A4382837047F0B50C4615460A
:102A5000002200210026078C4EF6FF7C07EA0C07B7
:102A60000784828B018C4FF6FF7707EA043640F625
:102A7000FF473A404FF6FF7707EA05273A434FF6FC
:102A8000FF7707EA03373A43D94FB8420ED0D94F00
:102A9000B8420BD0B0F1804F08D0D74FB84205D024
:102AA000D64FB84202D0D64FB84206D14DF6FF7786
:102AB000394046F48057394305E047F6FF5739401F
:102AC00044F48057394382830184F0BD828B4FF6F2
:102AD000F3731A408283828B0A4382837047F0B576
:102AE0000C461546002200210026078C4FF6FF6C8D
:102AF00007EA0C070784828B018C4FF6FF7707EA01
:102B000004264FF60C773A404FF6FF7707EA031793
:102B10002F433A43B64FB8420ED0B64FB8420BD00F
:102B2000B0F1804F08D0B44FB84205D0B34FB8428F
:102B300002D0B34FB84206D14FF6FF57394046F4A2
:102B40008077394305E04FF2FF57394044F48077EE
:102B5000394382830184F0BD028B4FF2FF331A4068
:102B60000283028B4FF6FF7303EA01231A430283A9
:102B70007047F0B50C461546002200210026078C50
:102B80004FF6EF7C07EA0C070784028B018C4FF6A7
:102B9000FF7707EA041640F6FF473A404FF6FF7703
:102BA00007EA03373A434FF6FF7707EA05273A4328
:102BB0008F4FB8420ED08F4FB8420BD0B0F1804F3C
:102BC00008D08D4FB84205D08C4FB84202D08C4F00
:102BD000B84206D14FF6DF77394046F01007394347
:102BE00005E04FF65F77394044F010073943028320
:102BF0000184F0BD028B4FF6F3731A400283028BFF
:102C00000A4302837047F0B50C46154600220021A6
:102C1000068C4FF6FE773E400684028B018C4FF601
:102C20000C7632407E1C06EA03162E433243704E69
:102C3000B0420ED06F4EB0420BD0B0F1804F08D0F2
:102C40006D4EB04205D06D4EB04202D06C4EB042D7
:102C500006D14FF6FD76314044F00106314305E0E0
:102C60004FF6F576314044F001063143028301848A
:102C7000F0BD70B505460C465D4885420ED05D48F6
:102C800085420BD0B5F1804F08D05B48854205D016
:102C90005A48854202D05A48854200D100E000BF20
:102CA000208850B92389A28861882846FFF7ABFFA6
:102CB000E1882846FFF79EFF25E0208804280AD1F6
:102CC0002389A28861882846FFF753FFE1882846B8
:102CD000FFF742FF17E0208808280AD12389A2883D
:102CE00061882846FFF7FBFEE1882846FFF7EEFEE5
:102CF00009E02389A28861882846FFF7A6FEE188BB
:102D00002846FFF795FE70BD2DE9F04105460C46BB
:102D100000260127608808B9022600E00026A08866
:102D2000012801D1022700E001272088A0B92389CA
:102D3000A28861882846FFF766FFE1882846FFF7EA
:102D400059FF23893A4631462846FFF712FFE188AA
:102D50002846FFF701FF13E02389A28861882846EF
:102D6000FFF707FFE1882846FFF7F6FE23893A467A
:102D700031462846FFF747FFE1882846FFF73AFF2C
:102D8000BDE8F0810A884B881A438B881A43CB88A8
:102D90001A430B891A434B891A438B891A43A0F8AB
:102DA000442070474FF6FF71818000210180C1806F
:102DB0004180017270470021018041808180C18083
:102DC000018141818181C181704700210180418061
:102DD000012181800021C180018170470021018093
:102DE00041808180C18001814181818170470000E3
:102DF000002C014000340140000400400008004065
:102E0000000C004021B1028842F00102028004E07F
:102E100002884FF6FE731A400280704731B1B0F855
:102E2000442042F40042A0F8442005E0B0F84420D9
:102E3000C2F30E02A0F8442070471AB183890B43F5
:102E4000838102E083898B4383817047818270474D
:102E500041EA0203A0F8483070471AB183890B4356
:102E6000838102E083898B438381704701894FF618
:102E7000F8721140018170470A46002101894FF61E
:102E80008F73194011430181704730B504460D46D8
:102E900029462046FFF7F0FF208940F007002081F7
:102EA00030BD2DE9F04104460D4616461F46602D03
:102EB00006D13B46012231462046FFF75AFE05E087
:102EC0003B46012231462046FFF79DFE294620461B
:102ED000FFF7D2FF208940F007002081BDE8F08194
:102EE00030B50C4600210189C9B24FF6FF7505EADD
:102EF0000325154325432943018130BD2DE9F041C8
:102F000005460E4617469846002443463A46314643
:102F10002846FFF7E5FF2C894FF6F870044044F08F
:102F200007044FF68F70044044F070042C81BDE814
:102F3000F081F0B504460D4616461F463B46324624
:102F400029462046FFF7CCFF208940F480402081AD
:102F5000F0BD0185828270470A46002101884FF644
:102F60008F731940114301807047F0B50C46154628
:102F70001E460021002200230189028B038C4FF69C
:102F8000F877394021434FF6FC473A4040F20117A9
:102F90003A434FF6DD773B404FF6FF7707EA0617D7
:102FA0002F433B43018102830384F0BD0A46002185
:102FB000018B4FF68F7319401143018370470A4606
:102FC0000021018B48F6FF7319404FF6FF7303EAA7
:102FD00002231943018370470A460021818B4FF673
:102FE0008F7319401143818370470A460021818BFA
:102FF00048F6FF7319404FF6FF7303EA02231943A3
:103000008183704721B1028842F08002028004E08F
:1030100002884FF67F731A400280704721B1828880
:1030200042F00402828004E082884FF6FB731A406B
:103030008280704721B1828842F00802828004E0D9
:1030400082884FF6F7731A408280704721B18288D8
:1030500042F00102828004E082884FF6FE731A403B
:10306000828070470A460021018B4FF6F7731940A2
:103070001143018370470A460021018B4FF2FF7311
:1030800019404FF6FF7303EA022319430183704787
:103090000A460021818B4FF6F77319401143818353
:1030A00070470A460021818B4FF2FF7319404FF69B
:1030B000FF7303EA02231943818370470A46002104
:1030C000018B4FF6FB7319401143018370470A4689
:1030D0000021018B4FF6FF3319404FF6FF7303EACF
:1030E00002231943018370470A460021818B4FF662
:1030F000FB7319401143818370470A460021818B7D
:103100004FF6FF3319404FF6FF7303EA02231943CA
:10311000818370470A460021018B4FF67F73194067
:103120001143018370470A460021018BC1F30E0150
:103130004FF6FF7303EA02231943018370470A46DF
:103140000021818B4FF67F731940114381837047B3
:103150000A460021818BC1F30E014FF6FF7303EA8B
:1031600002231943818370470A460021018C4FF6E0
:10317000FD7319401143018470470A460021018CF8
:103180004FF6F77319401143018470470A46002136
:10319000018C4FF6DF7319404FF6FF7303EA0213F9
:1031A0001943018470470A460021018C4FF67F7352
:1031B00019404FF6FF7303EA021319430184704765
:1031C0000A460021018C4FF6FF5319404FF6FF735A
:1031D00003EA02231943018470470A460021018C47
:1031E0004FF2FF7319404FF6FF7303EA02231943AE
:1031F000018470470A460021018C4DF6FF73194087
:103200004FF6FF7303EA023319430184704730B568
:10321000002301248C40A3B2048C9C430484048CBE
:1032200002FA01F5ADB22C43048430BD30B5002361
:1032300004248C40A3B2048C9C430484048C02FAC2
:1032400001F5ADB22C43048430BD70B503460020B7
:1032500000241846183001258D40ACB21D8CA543C2
:103260001D8409B1082909D100EB6100056825F02A
:10327000700505600568154305600EE00D1FC5F378
:103280004E052844056825F4E045056005684FF6BD
:10329000FF7606EA02263543056070BD21B102883B
:1032A00042F00202028004E002884FF6FD731A40E9
:1032B0000280704721B1028842F00402028004E0DB
:1032C00002884FF6FB731A400280704721B1828852
:1032D00042F08002828004E082884FF67F731A40B9
:1032E0008280704702884FF6F7731A400280028886
:1032F0000A430280704782884FF68F731A4082809B
:1033000082880A438280704702894FF6F8731A4018
:10331000028102890A430281704702894FF67F7356
:103320001A40028102890A430281704781847047F2
:103330008185704781867047018770478187704714
:10334000A0F84010704702884FF6FF431A400280F1
:1033500002880A43028070470146888E7047014602
:10336000088F70470146888F70470146B1F84000CA
:1033700070470146888C70470146088D70470246A9
:103380000020138A0B400BB1012000E000207047A1
:10339000CA430282704730B5024600200023002451
:1033A000158A05EA0103958905EA010413B10CB1F8
:1033B000012000E0002030BDCA43028270470000B7
:1033C00010B50446FA48844208D101214015FEF7A1
:1033D000A7FC00216015FEF7A3FC17E0F548844226
:1033E00008D101210015FEF79BFC00212015FEF7F6
:1033F00097FC0BE0F048844208D10121C803FEF796
:103400008FFC00214FF40040FEF78AFC10BD30B560
:103410000246002000235068E84C20400D790C68DB
:1034200044EA0524204350609068E54C2040D1E9EF
:1034300002542C434D7944EA450420439060D06AFD
:1034400020F470000C7C641EE4B2234340EA035075
:10345000D06230BD00210160017141718160C160A5
:1034600001210174704721B1826842F0010282603B
:1034700003E0826822F001028260704721B1826815
:1034800042F48072826003E0826822F4807282607B
:10349000704710B50023CBB21AB144681C43446096
:1034A00002E044689C43446010BD816841F008011B
:1034B00081607047014600208A6802F008020AB164
:1034C000012000E000207047816841F00401816024
:1034D0007047014600208A6802F004020AB1012008
:1034E00000E00020704721B1826842F4A0028260AF
:1034F00003E0826822F4A002826070470146002047
:103500008A6802F480020AB1012000E000207047BE
:1035100010B50A4600210023416821F46041531E82
:1035200041EA4331416010BD21B1426842F400627A
:10353000426003E0426822F4006242607047F0B5E6
:1035400004460D4600200021092D11DDE068A5F19B
:103550000A0606EB4607072606FA07F18843A5F197
:103560000A0606EB460603FA06F10843E0600CE0A3
:10357000206905EB4507072606FA07F1884305EBA6
:10358000450603FA06F108432061072A0FDA606B4B
:10359000561E06EB86071F2606FA07F18843561EBD
:1035A00006EB860605FA06F10843606322E00D2A61
:1035B0000FDA206BD61F06EB86071F2606FA07F1E7
:1035C0008843D61F06EB860605FA06F108432063FA
:1035D00010E0E06AA2F10D0606EB86071F2606FA48
:1035E00007F18843A2F10D0606EB860605FA06F1FF
:1035F0000843E062F0BD21B1826842F4801282602B
:1036000003E0826822F48012826070470146C86C31
:1036100080B2704766484C300068704721B14268FC
:1036200042F48062426003E0426822F480624260B9
:10363000704721B1426842F48052426003E0426820
:1036400022F48052426070470A460021816821F4CA
:10365000E04111438160704721B1826842F4004229
:10366000826003E0826822F400428260704721B1E8
:10367000826842F40212826003E0826822F402123D
:1036800082607047014600208A6802F400120AB185
:10369000012000E000207047F0B5044615460020E8
:1036A00000220026092911DDE068A1F10A0707EBD5
:1036B000470C072707FA0CF29043A1F10A0707EB22
:1036C000470703FA07F21043E0600CE0206901EBC2
:1036D000410C072707FA0CF2904301EB410703FA6C
:1036E00007F210432061A06BC0F30156EF1C06F1F6
:1036F000010CA7EB0C0707EB870C1F2707FA0CF24E
:103700009043EF1C06F1010CA7EB0C0707EB8707B2
:1037100001FA07F21043A063F0BD10B50A4600217C
:103720000023816B21F44011531E41EA0351816350
:1037300010BD08B5002300930090009B0B4400933C
:10374000009B1A6008BD08B5024600200090009258
:1037500001F12800009B184400900098006880B296
:1037600008BD0A4600214168164B194011434160CB
:1037700070474162826270470A460021416821F029
:103780001F0111434160704740B109490831096880
:1037900041F40001064A0832116007E0044908318B
:1037A000096821F40001024A0832116070470000E4
:1037B0000024014000280140003C0140FFFEF0FFD2
:1037C000FDF7F1FFFFFD3FFF0246002013680B40AD
:1037D0000BB1012000E000207047CA43026070472F
:1037E00070B502460020002300240B125568CEB2AB
:1037F00005EA060415681D4015B10CB1012000E072
:10380000002070BD00220A12D343036070470000FD
:10381000002044490860091D0860091D0860091D51
:10382000086041483F4914310860704700213D4914
:103830008279002A3AD00A46126803689A430B46F6
:103840001A600A1D126803689A430B1D1A600279F8
:1038500011440A6803681A430A60324A083212683F
:1038600003689A432F4B08331A601A1D12680368C5
:103870009A432C4B0C331A604279102A0ED11A1F2E
:10388000126803681A43274B08331A601A1D12681E
:1038900003681A43234B0C331A600DE02149427927
:1038A00011440A6803681A430A6005E0027911446A
:1038B0000A6803689A430A60704700210160017139
:1038C0000C2141710021817170471649103109683E
:1038D0000143144A10321160704701460020114A1A
:1038E000143212680A400AB1012000E0002070473B
:1038F0000C49143108607047014600200022094B32
:103900001B6803EA0102074B14331B680B4013B119
:103910000AB1012000E0002070470249143108601C
:103920007047000000040140FFFF0F00704710B512
:10393000203AC0F00B80B1E81850203AA0E81850A7
:10394000B1E81850A0E81850BFF4F5AF5FEA027C68
:1039500024BFB1E81850A0E8185044BF18C918C0D7
:10396000BDE810405FEA827C24BF51F8043B40F878
:10397000043B08BF7047D20728BF31F8023B48BF5D
:1039800011F8012B28BF20F8023B48BF00F8012B9B
:1039900070477047704770477047754600F028F8C9
:1039A000AE4605006946534620F00700854618B02C
:1039B00020B5FDF76DFEBDE820404FF000064FF04A
:1039C00000074FF000084FF0000B21F00701AC4654
:1039D000ACE8C009ACE8C009ACE8C009ACE8C00973
:1039E0008D4670470446AFF300802046FCF707FC85
:1039F00000487047D40200207361676A617369747C
:103A000066656672796977666B6A6400000000001B
:103A10000000000000000000003443101001344397
:103A200010100100C800060126014A015D0188014D
:103A3000B8010B0212024B029302BA021003700388
:103A4000DC0317049704270575052006E006AF0779
:103A50000000000000000000002F00000000070030
:103A6000070000147F147F1400242A7F2A120062AA
:103A70006408132300364955225000000503000056
:103A800000001C224100000041221C000014083EDE
:103A900008140008083E0808000000A060000008A4
:103AA00008080808000060600000002010080402F8
:103AB000003E5149453E0000427F400000426151B6
:103AC0004946002141454B31001814127F10002750
:103AD00045454539003C4A49493000017109050313
:103AE00000364949493600064949291E0000363644
:103AF00000000000563600000008142241000014A7
:103B00001414141400004122140800020151090683
:103B100000324959513E007C1211127C007F494904
:103B20004936003E41414122007F4141221C007F35
:103B300049494941007F09090901003E4149497A43
:103B4000007F0808087F0000417F410000204041BD
:103B50003F01007F08142241007F40404040007F29
:103B6000020C027F007F0408107F003E4141413E6D
:103B7000007F09090906003E4151215E007F0919B5
:103B800029460046494949310001017F0101003FB2
:103B90004040403F001F2040201F003F4038403F32
:103BA0000063140814630007087008070061514996
:103BB000454300007F41410000552A552A55000029
:103BC00041417F00000402010204004040404040A7
:103BD000000001020400002054545478007F48443F
:103BE000443800384444442000384444487F003876
:103BF0005454541800087E0901020018A4A4A47C9F
:103C0000007F080404780000447D40000040808468
:103C10007D00007F102844000000417F4000007CB0
:103C200004180478007C08040478003844444438BC
:103C300000FC242424180018242418FC007C080408
:103C4000040800485454542000043F444020003CE1
:103C50004040207C001C2040201C003C4030403C68
:103C6000004428102844001CA0A0A07C00446454F8
:103C70004C4414141414141400000000000000003C
:103C80000000000000000000000000F8000000003C
:103C9000000000333000000000100C06100C06007D
:103CA000000000000000000040C07840C0784000E4
:103CB000043F04043F040400007088FC0830000046
:103CC000001820FF211E0000F008F000E01800009E
:103CD00000211C031E211E0000F008887000000057
:103CE0001E2123241927211010160E0000000000A9
:103CF0000000000000000000000000E018040200C6
:103D0000000000071820400000020418E000000036
:103D10000040201807000000404080F08040400034
:103D20000202010F01020200000000F0000000008A
:103D30000101011F0101010000000000000000005E
:103D400080B07000000000000000000000000000D3
:103D5000000101010101010100000000000000005C
:103D600000303000000000000000000080601804F7
:103D7000006018060100000000E010080810E000D4
:103D8000000F102020100F00001010F8000000009D
:103D90000020203F202000000070080808887000E4
:103DA0000030282422213000003008888848300064
:103DB0000018202020110E000000C02010F8000084
:103DC00000070424243F240000F80888880808001D
:103DD0000019212020110E0000E010888818000032
:103DE000000F112020110E0000380808C838080004
:103DF0000000003F00000000007088080888700084
:103E0000001C222121221C0000E010080810E00004
:103E10000000312222110F00000000C0C00000008D
:103E200000000030300000000000008000000000B2
:103E300000008060000000000000804020100800AA
:103E40000001020408102000404040404040400073
:103E5000040404040404040000081020408000004E
:103E60000020100804020100007048080808F00053
:103E70000000003036010000C030C828E810E00023
:103E80000718272423140B000000C038E0000000AE
:103E9000203C23020227382008F888888870000018
:103EA000203F202020110E00C030080808083800EC
:103EB000071820202010080008F808080810E00063
:103EC000203F202020100F0008F88888E808100004
:103ED000203F20202320180008F88888E8081000D8
:103EE000203F200003000000C03008080838000010
:103EF00007182020221E020008F808000008F80811
:103F0000203F210101213F20000808F80808000097
:103F10000020203F2020000000000808F8080800CA
:103F2000C08080807F00000008F888C02818080042
:103F3000203F20012638200008F80800000000007B
:103F4000203F20202020300008F8F800F8F8080072
:103F5000203F003F003F200008F830C00008F8086C
:103F6000203F200007183F00E01008080810E0007C
:103F70000F10202020100F0008F808080808F00093
:103F8000203F210101010000E01008080810E000B6
:103F90000F18242438504F0008F88888888870004B
:103FA000203F2000030C30200070880808083800EB
:103FB0000038202121221C00180808F808081800E1
:103FC0000000203F2000000008F808000008F80862
:103FD000001F202020201F000878880000C8380813
:103FE000000007380E010000F80800F80008F8008B
:103FF000033C0700073C0300081868808068180825
:1040000020302C03032C30200838C800C8380800A2
:104010000000203F2000000010080808C8380800F1
:104020002038262120201800000000FE0202020095
:104030000000007F40404000000C30C00000000045
:10404000000000010638C00000020202FE0000006D
:10405000004040407F000000000004020202040013
:104060000000000000000000000000000000000050
:104070008080808080808080000202040000000038
:104080000000000000000000000080808080000030
:104090000019242222223F2008F80080800000001E
:1040A000003F112020110E000000008080800000E1
:1040B000000E112020201100000000808088F800F0
:1040C000000E112020103F20000080808080000022
:1040D000001F222222221300008080F08888881886
:1040E0000020203F20200000000080808080800091
:1040F000006B94949493600008F800808080000026
:10410000203F210000203F20008098980000000000
:104110000020203F20200000000000809898000030
:1041200000C08080807F000008F800008080800050
:10413000203F24022D302000000808F80000000075
:104140000020203F20200000808080808080800030
:10415000203F20003F20003F8080008080800000C2
:10416000203F210000203F20000080808080000050
:10417000001F202020201F00808000808000000081
:1041800080FFA12020110E000000008080808000B0
:10419000000E112020A0FF808080800080808000A1
:1041A00020203F21200001000000808080808000CE
:1041B0000033242424241900008080E08080000043
:1041C0000000001F20200000808000000080800090
:1041D000001F202020103F208080800000808080F1
:1041E00000010E3008060100808000800080808081
:1041F0000F300C030C300F000080800080808000A6
:104200000020312E0E3120008080800000808080D0
:1042100080818E7018060100008080808080800080
:104220000021302C2221300000000000807C02029E
:1042300000000000003F404000000000FF000000C0
:1042400000000000FF0000000002027C800000006F
:104250000040403F0000000000060101020204048B
:10426000000000000000000088420008000000205C
:10427000F80100006C01000860430008F80100200C
:1042800040070000C80100081184A24A04200A0166
:1042900002030406070809011BF010012AFF0502AA
:1042A00015F01B0F04012AFF0502130F18094040E7
:1042B000405F55555575041A5F0C091121080C1102
:1042C000200F094989790909090F201F112FFE02C2
:1042D000424ACA4A0304134202FE000E14FF405031
:1042E0004C4340404F50505C40FF1BF888012AFF70
:1042F000050215F81B1F08012A7F200B109F80E282
:104300003B808201000916E2A2928A8682808004A4
:104310001840807F172424A4FEA3221B22CCAA01CC
:104320001415080601FF2B0104010511FF0202020A
:104330005808101010FF109008C3021108080F153C
:104340000444827F01808040432C10284681A0C114
:104350002D01020304041808060708090204065286
:0400000508000131BD
:00000001FF
